:1000000044EF01F05072616374696361204E6F2E9A
:1000100020340D0043616C63756C61646F72612004
:10002000417269746D6574696361200D0D00496EDC
:10003000677265736120656C207072696D657220EE
:100040006F706572616E646F200D0000496E67729B
:1000500065736120656C20736567756E646F206FD2
:10006000706572616E646F200D0053656C6563632B
:10007000696F6E6520756E61206F7065726163696E
:100080006F6E3A200D20312953756D612020322981
:100090005265737461202033294D756C7469706CDE
:1000A00069636163696F6E202034294469766973DE
:1000B000696F6E200D00436F6D70726F62616E64C8
:1000C0006F20717565206C6F73206461746F73208D
:1000D000667565726F6E20696E6772657361646FB5
:1000E000732025642C2025642C2025642000939007
:1000F0008A90080E016E00D00000018E0ED0019E85
:100100001332D8B08A80D8A08A90018C06D0019C86
:10011000012EF6D700D000008A80840EE96EE92E09
:10012000FED700D0000001BEEAD701BCF0D7120014
:100130000900F5520CE0F6CF0DF0F7CF0EF0F5CF39
:1001400013F0D5DF0DC0F6FF0EC0F7FFF1D7120098
:10015000938281B2FED7080E006E0D6A008E0ED01B
:10016000009E0CD0D89081B2D8800D32008C06D081
:10017000009C002EF7D70DC001F00CD0840E00BEFD
:10018000240E016E012EFED700D000BEE9D700BCC0
:10019000EFD7E8D712000900F6CF0EF0F7CF0FF037
:1001A000F5CF13F0A4DF0EC0F6FF0FC0F7FF0D2E42
:1001B000F2D782EF01F01450016A135C03E213C01E
:1001C00000F00CD0006A080E156E1336003614507D
:1001D000005CD8B0006E0136152EF7D71200200E45
:1001E0000EA8300E0F6E0DC000F00DAE08D0001E30
:1001F000002A00C00DF02D0E0F6E0E8E0E800150E5
:100200000DC013F0640E146ED6DF00C00DF0300E7A
:100210000124106E0DC013F00A0E146ECCDF300EE8
:100220000024126E300E0124116E0FC000F0300E4B
:10023000105C04E00E820EBE0E8412D00FC010F0CF
:10024000200E0F6E300E115C04E00E800EBE0E828A
:1002500007D0D8A40E8004E110C011F0200E106E5B
:100260000EB405D00EB206D00EB007D009D00FC024
:1002700013F03DDF10C013F03ADF11C013F037DF89
:1002800012C013F034DF1200F86AD09E600ED36EF5
:10029000400E9B6ED35093908A80C150C00B0F09C3
:1002A000C16E070EB46E600ED36E400E9B6ED350BF
:1002B000040EF66E000EF76E3BDF140EF66E000EA7
:1002C000F76E36DF2E0EF66E000EF76E31DF40DF72
:1002D00001C005F04C0EF66E000EF76E29DF38DF18
:1002E00001C006F06A0EF66E000EF76E21DF30DFF9
:1002F00001C007F02DDFB60EF66E000EF76E2C0E65
:100300000D6E49D705C00DF0180E0E6E68DF2C0E6D
:10031000136EEDDE200E136EEADE06C00DF0180E31
:100320000E6E5DDF2C0E136EE2DE200E136EDFDE2E
:1003300007C00DF0180E0E6E52DF200E136ED7DEC2
:04034000D9D7030006
:020000040030CA
:0E0000000008181E000581000FC00FE00F4021
:00000001FF
;PIC18F4620
;CRC=F713  CREATED="20-abr.-17 12:21"
