:10000000A0EF02F05072616374696361204E6F2E3D
:1000100020340D0043616C63756C61646F72612004
:10002000417269746D6574696361200D0D00496EDC
:10003000677265736120656C207072696D657220EE
:100040006F706572616E646F200D0000496E67729B
:1000500065736120656C20736567756E646F206FD2
:10006000706572616E646F200D0053656C6563632B
:10007000696F6E6520756E61206F7065726163696E
:100080006F6E3A200D20312953756D612020322981
:100090005265737461202033294D756C7469706CDE
:1000A00069636163696F6E202034294469766973DE
:1000B000696F6E200D00456C20726573756C7461FC
:1000C000646F206465206C61206F70657261636984
:1000D0006F6E2065733A2025660D000093908A901C
:1000E000080E016E00D00000018E0ED0019E1A3263
:1000F000D8B08A80D8A08A90018C06D0019C012EAD
:10010000F6D700D000008A80840EE96EE92EFED773
:1001100000D0000001BEEAD701BCF0D712000900F0
:10012000F5520CE0F6CF0DF0F7CF0EF0F5CF1AF048
:10013000D5DF0DC0F6FF0EC0F7FFF1D71200938296
:1001400081B2FED7080E006E0D6A008E0ED0009EA2
:100150000CD0D89081B2D8800D32008C06D0009C93
:10016000002EF7D70DC001F00CD0840E00BE240E77
:10017000016E012EFED700D000BEE9D700BCEFD73C
:10018000E8D712008E0E006E0EC001F00DC002F016
:10019000036A015209E102C001F0026A080E005E22
:1001A000015202E1006A08D0D89001BE04D00236A4
:1001B00001360006F9D7019E12000E50016A0D5C4F
:1001C00003E20DC000F00CD0006A080E0F6E0D3671
:1001D00000360E50005CD8B0006E01360F2EF7D7F7
:1001E00014EF03F00900F6CF0EF0F7CF0FF0F5CFC4
:1001F0001AF074DF0EC0F6FF0FC0F7FF0D2EF2D716
:1002000027EF03F01A50D8B471D0006E1E50D8B446
:100210006DD0002604E3810E002668E204D07F0E34
:10022000005E64E363E01BC022F01F50221A1B8EA5
:100230001F8E1D502102F4CF24F01C502002F4CF59
:1002400003F0F3CF23F02102F3502426F4502322AD
:10025000000E03221D502002F3502426F4502322C6
:10026000000E026A032202221B502102F3502326B1
:10027000F4500322000E02221B502002F3500326EA
:10028000F4500222000E016A01221D501F02F35099
:100290002326F4500322000E022201221C501F02CA
:1002A000F3500326F4500222000E01221B501F02BD
:1002B000F3500226F4500122002A01BE05D0233655
:1002C0000336023601360006000E23AE0AD0032A9A
:1002D00002220122015005E1025003E1035001E135
:1002E000002A22BE018E22AE019E04D0006A016A5D
:1002F000026A036AF7EF01F01A50B6081A6E036A31
:100300001BC01EF01B8ED8901B321C321D320332D4
:100310000232013200321A2EF6D71EAE0BD0001E6A
:10032000011E021E031E002AD8B4012AD8B4022AD4
:10033000D8B4032A0AEF02F0D8B203D0EA6A220E38
:10034000E96E006A016A026A036A226A236A246A01
:10035000256A215020101F101E102CE0200E266E42
:10036000D8901A361B361C361D36223623362436D4
:1003700025362150255C08E12050245C05E11F5002
:10038000235C02E11E50225C0FE31E50225E1F50D0
:10039000D8A01F3C235E2050D8A0203C245E2150D2
:1003A000D8A0213C255ED8800036013602360336BF
:1003B000262ED6D722C0EFFF23C0ECFF24C0ECFFCF
:1003C00025C0ECFF1200E950126E1150146E19E0B6
:1003D00010C01DF00FC01CF00EC01BF00DC01AF0B5
:1003E000216A206A200E1F6E820E1E6E0BD703C07C
:1003F00010F002C00FF001C00EF000C00DF0142E7E
:10040000E7D710C01DF00FC01CF00EC01BF00DC0D0
:100410001AF072D703C010F002C00FF001C00EF046
:1004200000C00DF010AE0DD01206128A0D1E0E1E69
:100430000F1E101E0D2AD8B40E2AD8B40F2AD8B415
:10044000102A3B0E196E9A0E186ECA0E176E166A97
:100450000A0E146E1150D8B4122AD882EA6A0D0E10
:10046000E96E10C01DF00FC01CF00EC01BF00DC0D7
:100470001AF019C021F018C020F017C01FF016C0E4
:100480001EF05ADF015000520FE11128145C0CE0FD
:1004900012500CE00F0B145C01E037E212BE35D0B5
:1004A00012BC04D0200E2DD0200E121612AA0CD091
:1004B000129A1150D8A412060050126E2D0E1A6E08
:1004C0000DDE1250006E126A1150145C0AE10050E9
:1004D000126E2E0E1A6E02DE1250006E200E1216D2
:1004E000000E300E12AA0DD0129A1150D8A4120686
:1004F0000050126E2D0E1A6EF1DD1250006E126A4F
:10050000300E002600C01AF0E9DDD89219C01DF0A7
:1005100018C01CF017C01BF016C01AF0216A206A20
:100520001F6A0A0E1E6E08DF03C019F002C018F021
:1005300001C017F000C016F0142E8FD734EF03F06F
:10054000F86AD09E600ED36E400E9B6ED35093908F
:100550008A80C150C00B0F09C16E070EB46E600EC9
:10056000D36E400E9B6ED350040EF66E000EF76EE7
:10057000D6DD140EF66E000EF76ED1DD2E0EF66E81
:10058000000EF76ECCDDDBDD300E015C056E4C0E2F
:10059000F66E000EF76EC3DDD2DD300E015C066E26
:1005A0006A0EF66E000EF76EBADDC9DD300E015C24
:1005B000076E072C0ED0065005240E6A0D6EE2DD84
:1005C00003C00BF002C00AF001C009F000C008F03F
:1005D00037D0075002080EE10650055C0E6A0D6E1A
:1005E000D1DD03C00BF002C00AF001C009F000C069
:1005F00008F026D0075003080FE105500602F3501B
:100600000E6A0D6EBFDD03C00BF002C00AF001C020
:1006100009F000C008F014D00750040811E105C02B
:100620000DF006C00EF0C9D501500E6A0D6EAADDA0
:1006300003C00BF002C00AF001C009F000C008F0CE
:10064000B60EF66E000EF76E210E0D6ECBD5890E2E
:10065000E96E0BC010F00AC00FF009C00EF008C020
:100660000DF0020E116EAFD60D0E1A6E37DD67DD7E
:04067000A0D703000C
:020000040030CA
:0E0000000008181E000581000FC00FE00F4021
:00000001FF
;PIC18F4620
;CRC=2F6C  CREATED="20-abr.-17 13:01"
