:04000000A4EF06F073
:08000800046ED8CF05F0E0CF33
:1000100006F00001E9CF0CF0EACF07F0E1CF08F0DD
:10002000E2CF09F0D9CF0AF0DACF0BF0F3CF12F01C
:10003000F4CF13F0FACF14F000C00EF001C00FF0AF
:1000400002C010F003C011F09DAA2AEF00F09EBA82
:100050009FEF00F00EC000F00FC001F010C002F0E2
:1000600011C003F00CC0E9FF07C0EAFF078E08C00B
:10007000E1FF09C0E2FF0AC0D9FF0BC0DAFF12C0DE
:10008000F3FF13C0F4FF14C0FAFF045006C0E0FFF2
:1000900005C0D8FF100093908A90080E016E00D022
:1000A0000000018E0ED0019E5F32D8B08A80D8A0A9
:1000B0008A90018C06D0019C012EF6D700D000005A
:1000C0008A80840EE96EE92EFED700D0000001BEC2
:1000D000EAD701BCF0D712000900F5520CE0F6CFC8
:1000E0005DF0F7CF5EF0F5CF5FF0D5DF5DC0F6FFD6
:1000F0005EC0F7FFF1D71200938281B2FED7080EDF
:10010000006E616A008E0ED0009E0CD0D89081B235
:10011000D8806132008C06D0009C002EF7D761C0D9
:1001200001F00CD0840E00BE240E016E012EFED70D
:1001300000D000BEE9D700BCEFD7E8D712005C685A
:10014000120EF66E020EF76EC7DF5C2A036A5C5071
:100150001E0FE96E000E0320EA6EEACF60F0E9CFD1
:100160005FF0CADF60C0EAFF5FC0E9FF01C0EFFFD8
:10017000036A5C501E0FE96E000E0320EA6EEF501A
:100180002F0825E3036A5C501E0FE96E000E032062
:10019000EA6EEF5039081BE2036A5C501E0FE96EED
:1001A000000E0320EA6EEF502D0811E0036A5C5048
:1001B0001E0FE96E000E0320EA6EEF502E0807E0D6
:1001C0001E0EF66E020EF76E87DF010E286E036AB2
:1001D0005C501E0FE96E000E0320EA6EEF500D0812
:1001E00003E01D505C5CB1E3036A5C501E0FE96ED6
:1001F000000E0320EA6EEF500D0808E1036A5C5020
:100200001E0FE96E000E0320EA6EEF6A9E9A2AEF37
:1002100000F0536920656E74726F0D200000446118
:10022000746F20696E636F72726563746F005072D1
:10023000616374696361204E6F2E20340D00436149
:100240006C63756C61646F726120417269746D6575
:1002500074696361200D0D00496E677265736120DA
:10026000656C207072696D6572206F706572616E69
:10027000646F200D0000496E677265736120656CC4
:1002800020736567756E646F206F706572616E6450
:100290006F200D0053656C656363696F6E65207533
:1002A0006E61206F7065726163696F6E3A200D2018
:1002B000312953756D612020322952657374612094
:1002C0002033294D756C7469706C69636163696F63
:1002D0006E202034294469766973696F6E200D00A1
:1002E000456C20726573756C7461646F2064652061
:1002F0006C61206F7065726163696F6E2065733A1F
:100300002025660D0D004850D8B471D0006E4C50B9
:10031000D8B46DD0002604E3810E002668E204D034
:100320007F0E005E64E363E049C050F04D50501A08
:10033000498E4D8E4B504F02F4CF52F04A504E0230
:10034000F4CF03F0F3CF51F04F02F3505226F450A4
:100350005122000E03224B504E02F3505226F4500D
:100360005122000E026A0322022249504F02F3502A
:100370005126F4500322000E022249504E02F3503F
:100380000326F4500222000E016A01224B504D0256
:10039000F3505126F4500322000E022201224A504B
:1003A0004D02F3500326F4500222000E0122495060
:1003B0004D02F3500226F4500122002A01BE05D05E
:1003C00051360336023601360006000E51AE0AD011
:1003D000032A02220122015005E1025003E10350E9
:1003E00001E1002A50BE018E50AE019E04D0006A89
:1003F000016A026A036A12008E0E006E4DC001F09F
:100400004CC002F0036A015209E102C001F0026A25
:10041000080E005E015202E1006A08D0D89001BEC9
:1004200004D0023601360006F9D7019E12004C5066
:10043000D8B4A5D0586E5050D8B4A1D0585E05E3BA
:100440007F0E5826D8B09BD006D0810E585ED8A01B
:1004500096D0D8B494D058C000F0016A026A036AFA
:10046000576A4DC056F0568E4EC055F04FC054F0EE
:10047000190E586E5350545E0DE2010E555E0AE29D
:10048000565E08E2575E06E2572A562A552A53500E
:10049000542628D05250555E12E2010E565E0FE2ED
:1004A000575E0DE2572A562A52505526535054266D
:1004B00019E3552A17E1562A15E1572A13D051504E
:1004C0008009565E0EE2010E575E0BE2572A51502C
:1004D0008009562652505526E9E3562AE7E1572A65
:1004E000E5D70380582E01D00BD0D890543655361E
:1004F00056365736D8900336023601365936BAD7B3
:1005000059A006D0D890013202320332593202D0BB
:10051000000635E059BE1ED0D890543655365636B2
:1005200057365350545E07E2010E555E04E2565EA4
:1005300002E2575E1AE35250555E05E2010E565E26
:1005400002E2575E12E351508009565E03E2010E4B
:10055000575E0BE3032A09E1022A07E1012A05E1BC
:10056000002A0DE00132023203324DC058F05150E2
:10057000581A58AE02D0018E06D0019E04D0006AEF
:10058000016A026A036A1200800ED8B2511A566AD2
:10059000576A4DC055F05150551A4C50D8B4DCD064
:1005A000546E006E5050D8B4E0D0545ED8B481D0B0
:1005B0003DE351C05AF05A8E52C059F053C058F022
:1005C000576AD8905A32593258325732542EF8D787
:1005D00055AE03D05680DDD0569054905688EA6AC6
:1005E0004F0EE96EE9D0569855BE0AD054A013D0EC
:1005F0005A32593258325732002AD8B4C5D00BD0AB
:100600005ABE0CD0D8905736583659365A3600064E
:10061000D8B4BAD0F5D7568C6BD0569C4DC055F097
:100620004DAE02D05A8EA9D05A9EA7D050C054F0D9
:1006300050C000F04C50545E4DC05AF05A8E4EC01F
:1006400059F04FC058F0576AD8905A325932583240
:100650005732542EF8D755AE03D056829AD05692C0
:100660005490568AEA6A530EE96EA6D0569A55BE41
:100670000AD054A013D05A32593258325732002A75
:10068000D8B482D00BD05ABE0CD0D890573658363A
:1006900059365A360006D8B477D0F5D7568E28D0BA
:1006A000569E51C055F051AE02D05A8E66D05A9E19
:1006B00064D051C05AF05A8E52C059F053C058F00D
:1006C00055AE04D05A9E568464D05694576A5490BE
:1006D000EA6A4F0EE96E70D055BE1CD04DC055F081
:1006E00054A006D05A32593258325732002A4CE0C0
:1006F00057AE0BD0582A09E1592A07E15A2A05E1D9
:100700005A3259325832002A3FE056BC86D756BE7C
:10071000C7D71CD0800E5A1A5AAE04D03AD051C056
:1007200055F00AD04DC055F05A5206E1595204E135
:10073000585202E1006A21D05ABE08D0D8905736EC
:10074000583659365A36002EF7D71ED055AE02D03D
:100750005A8E13D05A9E11D050C000F051C05AF09A
:1007600052C059F053C058F008D04CC000F04DC0F2
:100770005AF04EC059F04FC058F05AC001F059C05D
:1007800002F058C003F034D0006A016A026A036ABA
:100790002FD0576A581E591E5A1E571E572A05E158
:1007A000582A03E1592A01E15A2A56B015D756B200
:1007B00056D756B48AD7B3D7EF50582605E3592AEF
:1007C00003E15A2AD8B45480ED52EF50592603E37E
:1007D0005A2AD8B45480ED52EF50EFBE01D0800AAF
:1007E0005A26D8B0548056B8FED656BA3FD774D7DA
:1007F0001200406A3F6A3E6A7F0E3D6E446A436A59
:10080000426A416A458045924594476A39503A1098
:1008100005E1006A016A026A036A03D14750472A68
:10082000036A3924E96E3A500320EA6EEFCF46F0AE
:100830004652D8B4BBD045A00FD0465020080CE09B
:10084000459046502B0803E14592A5D005D046506F
:100850002D0802E145829FD045B007D046502E08B2
:1008600004E145B402D0458496D045B091D04650BD
:100870002F08D8B08DD046503908D8A089D0300E76
:10088000465E45A44FD040C04BF03FC04AF03EC04A
:1008900049F03DC048F04F6A4E6A200E4D6E820E00
:1008A0004C6E31DD03C040F002C03FF001C03EF0AD
:1008B00000C03DF04D6A46C04CF09EDD03C04BF0D9
:1008C00002C04AF001C049F000C048F003C04FF038
:1008D00002C04EF001C04DF000C04CF040C053F0DB
:1008E0003FC052F03EC051F03DC050F0A0DDD89264
:1008F00044C04FF043C04EF042C04DF041C04CF0F8
:1009000003C053F002C052F001C051F000C050F0DB
:100910003BDE03C044F002C043F001C042F000C01F
:1009200041F035D04B6A4A6A200E496E820E486EFD
:1009300044C04FF043C04EF042C04DF041C04CF0B7
:10094000E2DC03C04BF002C04AF001C049F000C035
:1009500048F04D6A46C04CF04FDDD8924BC04FF086
:100960004AC04EF049C04DF048C04CF003C053F0AF
:1009700002C052F001C051F000C050F005DE03C0CB
:1009800044F002C043F001C042F000C041F003D087
:1009900045B001D00BD04750472A036A3924E96E8D
:1009A0003A500320EA6EEFCF46F042D745A217D067
:1009B0004B6A4A6A800E496E7F0E486E44C04FF003
:1009C00043C04EF042C04DF041C04CF09CDC03C02F
:1009D00044F002C043F001C042F000C041F03B507F
:1009E0003C1017E047520CE047063BC0E9FF3CC013
:1009F000EAFF47503924EF6E000E3A20EC6E09D022
:100A00003BC0E9FF3CC0EAFF3AC0ECFFED5239C001
:100A1000EFFF41C000F042C001F043C002F044C00B
:100A200003F012004650B608466E036A47C04AF00B
:100A3000478ED8904732483249320332023201326F
:100A40000032462EF6D74AAE0BD0001E011E021E03
:100A5000031E002AD8B4012AD8B4022AD8B4032A23
:100A6000A1EF05F0D8B203D0EA6A4E0EE96E006A33
:100A7000016A026A036A4E6A4F6A506A516A4D50AF
:100A80004C104B104A102CE0200E526ED890463677
:100A90004736483649364E364F36503651364D5029
:100AA000515C08E14C50505C05E14B504F5C02E159
:100AB0004A504E5C0FE34A504E5E4B50D8A04B3C20
:100AC0004F5E4C50D8A04C3C505E4D50D8A04D3C91
:100AD000515ED8800036013602360336522ED6D704
:100AE0004EC0EFFF4FC0ECFF50C0ECFF51C0ECFF19
:100AF0001200E9503E6E3D50406E1AE03CC04BF093
:100B00003BC04AF03AC049F039C048F04F6A4E6ADB
:100B1000200E4D6E820E4C6E83EC01F003C03CF053
:100B200002C03BF001C03AF000C039F0402EE6D7D9
:100B30003CC049F03BC048F03AC047F039C046F0ED
:100B400071D703C03CF002C03BF001C03AF000C0D6
:100B500039F03CAE0DD03E063E8A391E3A1E3B1E91
:100B60003C1E392AD8B43A2AD8B43B2AD8B43C2AF5
:100B70003B0E456E9A0E446ECA0E436E426A0A0ED2
:100B8000406E3D50D8B43E2AD882EA6A390EE96EEA
:100B90003CC049F03BC048F03AC047F039C046F08D
:100BA00045C04DF044C04CF043C04BF042C04AF049
:100BB00059DF015000520FE13D28405C0CE03E50EF
:100BC0000CE00F0B405C01E053E23EBE51D03EBC56
:100BD00004D0200E42D0200E3E163EAA13D03E9ADC
:100BE0003D50D8A43E0600503E6E166AF2BE168EE8
:100BF000F29E2D0E5F6E4BEC00F016BEF28E3E5054
:100C0000006E3E6A3D50405C11E100503E6E166A37
:100C1000F2BE168EF29E2E0E5F6E4BEC00F016BEEC
:100C2000F28E3E50006E200E3E16000E300E3EAA92
:100C300014D03E9A3D50D8A43E0600503E6E166A2F
:100C4000F2BE168EF29E2D0E5F6E4BEC00F016BEBD
:100C5000F28E3E50006E3E6A300E0026166AF2BEDC
:100C6000168EF29E00C05FF04BEC00F016BEF28EC6
:100C7000D89245C049F044C048F043C047F042C054
:100C800046F04D6A4C6A4B6A0A0E4A6EEBDE03C0B0
:100C900045F002C044F001C043F000C042F0402ED5
:100CA00073D712003AC041F03E50411A41AE05D010
:100CB000D894D8903ABED8802FD03AC041F03DC0E9
:100CC00042F03950425E06E041AE26D0D850010ACB
:100CD000D86E22D03EC042F03A50425E06E041AEAD
:100CE0001BD0D850010AD86E17D03FC042F03B50FD
:100CF000425E06E041AE10D0D850010AD86E0CD04A
:100D000040C042F03C50425E06E041AE05D0D850B3
:100D1000010AD86E01D0D89012000900F6CF3AF03F
:100D2000F7CF3BF0166AF2BE168EF29EF5CF5FF05B
:100D30004BEC00F016BEF28E3AC0F6FF3BC0F7FF58
:100D4000392EEBD739EF08F0F86AD09E078E600E87
:100D5000D36E400E9B6ED35093908A80286AC15008
:100D6000C00B0F09C16E070EB46E176A186A600EC9
:100D7000D36E400E9B6ED350C00EF2129D8AC150AE
:100D8000C00B0F09C16E2C6A2B6A2A6A296A306A65
:100D90002F6A2E6A2D6A346A336A326A316A386A77
:100DA000376A366A356A2E0EF66E020EF76E166ACE
:100DB000F2BE168EF29E6CEC00F016BEF28E3E0E67
:100DC000F66E020EF76E166AF2BE168EF29E6CEC8E
:100DD00000F016BEF28E580EF66E020EF76E166A10
:100DE000F2BE168EF29E6CEC00F016BEF28E0A0E6B
:100DF0001D6E166AF2BE168EF29E7CEC00F016BED8
:100E0000F28E2852D8A4BFD73A6A1E0E396E3C6AB9
:100E10003B6AEFDC03C02CF002C02BF001C02AF0CB
:100E200000C029F0890EE96E2CC03CF02BC03BF0CD
:100E30002AC03AF029C039F0020E3D6E5ADE166A19
:100E4000F2BE168EF29E0D0E5F6E4BEC00F016BEDB
:100E5000F28E760EF66E020EF76E166AF2BE168EE1
:100E6000F29E6CEC00F016BEF28E0A0E1D6E166A33
:100E7000F2BE168EF29E7CEC00F016BEF28E3A6A3E
:100E80001E0E396E3C6A3B6AB4DC03C030F002C00F
:100E90002FF001C02EF000C02DF0890EE96E30C099
:100EA0003CF02FC03BF02EC03AF02DC039F0020EBE
:100EB0003D6E1FDE166AF2BE168EF29E0D0E5F6E3E
:100EC0004BEC00F016BEF28E940EF66E020EF76E2C
:100ED000166AF2BE168EF29E6CEC00F016BEF28E12
:100EE000010E1D6E166AF2BE168EF29E7CEC00F0AC
:100EF00016BEF28E3A6A1E0E396E3C6A3B6A79DC87
:100F000003C034F002C033F001C032F000C031F051
:100F100034C03CF033C03BF032C03AF031C039F05D
:100F2000406A3F6A3E6A7F0E3D6EBCDE1CE1D8928D
:100F30002CC04FF02BC04EF02AC04DF029C04CF011
:100F400030C053F02FC052F02EC051F02DC050F0E1
:100F5000C4EC02F003C038F002C037F001C036F034
:100F600000C035F07FD034C03CF033C03BF032C01D
:100F70003AF031C039F0406A3F6A3E6A800E3D6EF9
:100F800091DE1CE1D8822CC04FF02BC04EF02AC05D
:100F90004DF029C04CF030C053F02FC052F02EC09D
:100FA00051F02DC050F0C4EC02F003C038F002C084
:100FB00037F001C036F000C035F054D034C03CF0FA
:100FC00033C03BF032C03AF031C039F0406A3F6A7A
:100FD000400E3E6E800E3D6E65DE1BE12CC04BF078
:100FE0002BC04AF02AC049F029C048F030C04FF069
:100FF0002FC04EF02EC04DF02DC04CF083EC01F010
:1010000003C038F002C037F001C036F000C035F040
:1010100029D034C03CF033C03BF032C03AF031C08C
:1010200039F0406A3F6A3E6A810E3D6E3BDE1AE14E
:101030002CC04FF02BC04EF02AC04DF029C04CF010
:1010400030C053F02FC052F02EC051F02DC050F0E0
:1010500017EC02F003C038F002C037F001C036F0E0
:1010600000C035F0E00EF66E020EF76E210E396EFE
:1010700054D6890EE96E38C03CF037C03BF036C01C
:101080003AF035C039F0020E3D6E33DD166AF2BE1D
:10109000168EF29E0D0E5F6E4BEC00F016BEF28EB9
:1010A000166AF2BE168EF29E0D0E5F6E4BEC00F0CD
:0810B00016BEF28E78D6030093
:020000040030CA
:0E0000000008181E000581000FC00FE00F4021
:00000001FF
;PIC18F4620
;CRC=6F59  CREATED="25-abr.-17 21:51"
