:100000001BEF06F05072616374696361204E6F2EBE
:1000100020340D0043616C63756C61646F72612004
:10002000417269746D6574696361200D0D00496EDC
:10003000677265736120656C207072696D657220EE
:100040006F706572616E646F200D0000496E67729B
:1000500065736120656C20736567756E646F206FD2
:10006000706572616E646F200D0053656C6563632B
:10007000696F6E6520756E61206F7065726163696E
:100080006F6E3A200D20312953756D612020322981
:100090005265737461202033294D756C7469706CDE
:1000A00069636163696F6E202034294469766973DE
:1000B000696F6E200D00456C20726573756C7461FC
:1000C000646F206465206C61206F70657261636984
:1000D0006F6E2065733A2025660D0D00BF51756562
:1000E00020706172616D6574726F20646573656103
:1000F0002063616D626961723F0D2020205029509C
:1001000072696D6572206F706572616E646F202018
:100110005329536567756E646F206F706572616EE9
:10012000646F20204F294F7065726163696F6E0D97
:100130000000496E677265736120656C207072699A
:100140006D6572206F706572616E646F200D0000C6
:10015000496E677265736120656C20736567756EA3
:10016000646F206F706572616E646F200D0053655F
:100170006C656363696F6E6520756E61206F706575
:10018000726163696F6E3A200D20312953756D617C
:10019000202032295265737461202033294D756CFB
:1001A0007469706C69636163696F6E2020342944DF
:1001B00069766973696F6E200D0093908A90080EBE
:1001C000016E00D00000018E0ED0019E2232D8B008
:1001D0008A80D8A08A90018C06D0019C012EF6D787
:1001E00000D000008A80840EE96EE92EFED700D090
:1001F000000001BEEAD701BCF0D712000900F55299
:100200000CE0F6CF15F0F7CF16F0F5CF22F0D5DFE2
:1002100015C0F6FF16C0F7FFF1D71200938281B226
:10022000FED7080E006E156A008E0ED0009E0CD010
:10023000D89081B2D8801532008C06D0009C002E58
:10024000F7D715C001F00CD0840E00BE240E016E4D
:10025000012EFED700D000BEE9D700BCEFD7E8D70B
:100260001200006A016A1C50D8901DB000260032AE
:1002700001321DB20026003201321DB400260032C8
:1002800001321DB60026003201321DB800260032B0
:1002900001321DBA0026003201321DBC0026003298
:1002A00001321DBE002600320132C3EF01F01A6A8E
:1002B000186A0A0E196E176A1550161003E1000E1F
:1002C000016EC1D01A501A2A036A1524E96E16501D
:1002D0000320EA6EEFCF1BF01B502D080DE1010E3D
:1002E000186E1A501A2A036A1524E96E1650032054
:1002F000EA6EEFCF1BF00DD01B502B080AE11A500D
:100300001A2A036A1524E96E16500320EA6EEFCF0D
:100310001BF01B502F08D8B08ED01B503908D8A026
:100320008AD01B50300821E1036A1A501524E96E67
:1003300016500320EA6EEF5078080AE0036A1A505C
:100340001524E96E16500320EA6EEF5058080DE1AF
:10035000100E196E1A2A1A501A2A036A1524E96E09
:1003600016500320EA6EEFCF1BF019500A081BE16C
:100370001B502F0817E21B50390814E30A0E1C6E9D
:1003800017C01DF06ED7300E1B5C0124176E1A507B
:100390001A2A036A1524E96E16500320EA6EEFCF7D
:1003A0001BF0E6D748D01950100845E11B506008F3
:1003B00006E21B507A0803E31B50DF0B01D01B50F1
:1003C0001B6E1B502F0803E21B50390806E21B501E
:1003D000400831E21B5046082EE31B502F080CE268
:1003E0001B50390809E317381C6EF00E1C16300E2E
:1003F0001B5C1C24176E09D017381C6EF00E1C16DF
:10040000410E1B5C0A0F1C24176E1A501A2A036A2D
:100410001524E96E16500320EA6EEFCF1BF01B5037
:10042000600806E21B507A0803E31B50DF0B01D083
:100430001B501B6EC6D7182C04D019500A0801E1B6
:10044000176C17C001F012001850016A175C03E224
:1004500017C000F00CD0006A080E196E173600366F
:100460001850005CD8B0006E0136192EF7D7120074
:10047000015015C017F0640E186EE6DF00C015F0CD
:100480000150300E07E116A20CD016B60AD016B8ED
:10049000200E03D0169616981680012601C022F071
:1004A0008CDE15C017F00A0E186ECEDF00C015F0F6
:1004B0000150300E06E116B608D016A006D016B8C8
:1004C000200E012601C022F078DE300E152615C060
:1004D00022F073DE12008E0E006E1AC001F019C0F9
:1004E00002F0036A015209E102C001F0026A080E3B
:1004F000005E015202E1006A08D0D89001BE04D02B
:10050000023601360006F9D7019E1200800ED8B2DD
:100510001E1A236A246A1AC022F01E50221A195089
:10052000D8B4DCD0216E006E1D50D8B4E0D0215E6E
:10053000D8B481D03DE31EC027F0278E1FC026F01F
:1005400020C025F0246AD890273226322532243262
:10055000212EF8D722AE03D02380DDD02390219026
:100560002388EA6A1C0EE96EE9D0239822BE0AD0DD
:1005700021A013D02732263225322432002AD8B4C3
:10058000C5D00BD027BE0CD0D890243625362636C1
:1005900027360006D8B4BAD0F5D7238C6BD0239C6D
:1005A0001AC022F01AAE02D0278EA9D0279EA7D05B
:1005B0001DC021F01DC000F01950215E1AC027F0A7
:1005C000278E1BC026F01CC025F0246AD890273245
:1005D000263225322432212EF8D722AE03D02382B0
:1005E0009AD023922190238AEA6A200EE96EA6D03F
:1005F000239A22BE0AD021A013D0273226322532D8
:100600002432002AD8B482D00BD027BE0CD0D89088
:1006100024362536263627360006D8B477D0F5D7C7
:10062000238E28D0239E1EC022F01EAE02D0278E1D
:1006300066D0279E64D01EC027F0278E1FC026F0EC
:1006400020C025F022AE04D0279E238464D02394BA
:10065000246A2190EA6A1C0EE96E70D022BE1CD07A
:100660001AC022F021A006D02732263225322432A9
:10067000002A4CE024AE0BD0252A09E1262A07E106
:10068000272A05E1273226322532002A3FE023BC03
:1006900086D723BEC7D71CD0800E271A27AE04D01A
:1006A0003AD01EC022F00AD01AC022F0275206E12A
:1006B000265204E1255202E1006A21D027BE08D06B
:1006C000D8902436253626362736002EF7D71ED06A
:1006D00022AE02D0278E13D0279E11D01DC000F06D
:1006E0001EC027F01FC026F020C025F008D019C07A
:1006F00000F01AC027F01BC026F01CC025F027C050
:1007000001F026C002F025C003F034D0006A016A6F
:10071000026A036A2FD0246A251E261E271E241E65
:10072000242A05E1252A03E1262A01E1272A23B00C
:1007300015D723B256D723B48AD7B3D7EF5025267F
:1007400005E3262A03E1272AD8B42180ED52EF5091
:10075000262603E3272AD8B42180ED52EF50EFBEBE
:1007600001D0800A2726D8B0218023B8FED623BA2C
:100770003FD774D712002250D8B471D0006E2650E3
:10078000D8B46DD0002604E3810E002668E204D0C0
:100790007F0E005E64E363E023C02AF027502A1A2C
:1007A000238E278E25502902F4CF2CF024502802C6
:1007B000F4CF03F0F3CF2BF02902F3502C26F450A2
:1007C0002B22000E032225502802F3502C26F45031
:1007D0002B22000E026A0322022223502902F35028
:1007E0002B26F4500322000E022223502802F3503D
:1007F0000326F4500222000E016A0122255027022E
:10080000F3502B26F4500322000E02220122245022
:100810002702F3500326F4500222000E0122235037
:100820002702F3500226F4500122002A01BE05D00F
:100830002B360336023601360006000E2BAE0AD0E8
:10084000032A02220122015005E1025003E1035074
:1008500001E1002A2ABE018E2AAE019E04D0006A60
:10086000016A026A036A12001950D8B4A5D0256E35
:100870001D50D8B4A1D0255E05E37F0E2526D8B043
:100880009BD006D0810E255ED8A096D0D8B494D047
:1008900025C000F0016A026A036A246A1AC023F0C4
:1008A000238E1BC022F01CC021F0190E256E205093
:1008B000215E0DE2010E225E0AE2235E08E2245E62
:1008C00006E2242A232A222A2050212628D01F503B
:1008D000225E12E2010E235E0FE2245E0DE2242A64
:1008E000232A1F5022262050212619E3222A17E10D
:1008F000232A15E1242A13D01E508009235E0EE21C
:10090000010E245E0BE2242A1E50800923261F506C
:100910002226E9E3232AE7E1242AE5D70380252ECE
:1009200001D00BD0D8902136223623362436D890E9
:100930000336023601362636BAD726A006D0D8901E
:10094000013202320332263202D0000635E026BEE2
:100950001ED0D89021362236233624362050215EF0
:1009600007E2010E225E04E2235E02E2245E1AE345
:100970001F50225E05E2010E235E02E2245E12E3B6
:100980001E508009235E03E2010E245E0BE3032A5E
:1009900009E1022A07E1012A05E1002A0DE00132FE
:1009A000023203321AC025F01E50251A25AE02D09D
:1009B000018E06D0019E04D0006A016A026A036AB1
:1009C00047EF07F00900F6CF16F0F7CF17F0F5CF95
:1009D00022F0DDEC00F016C0F6FF17C0F7FF152E71
:1009E000F1D756EF07F02250B608226E036A23C0F3
:1009F00026F0238ED890233224322532033202325D
:100A000001320032222EF6D726AE0BD0001E011E78
:100A1000021E031E002AD8B4012AD8B4022AD8B470
:100A2000032A81EF05F0D8B203D0EA6A2A0EE96EF4
:100A3000006A016A026A036A2A6A2B6A2C6A2D6AB2
:100A400029502810271026102CE0200E2E6ED8904A
:100A500022362336243625362A362B362C362D36AA
:100A600029502D5C08E128502C5C05E127502B5CB7
:100A700002E126502A5C0FE326502A5E2750D8A0B8
:100A8000273C2B5E2850D8A0283C2C5E2950D8A0AB
:100A9000293C2D5ED88000360136023603362E2ED4
:100AA000D6D72AC0EFFF2BC0ECFF2CC0ECFF2DC027
:100AB000ECFF1200E9501A6E19501C6E19E018C0B4
:100AC00025F017C024F016C023F015C022F0296AC3
:100AD000286A200E276E820E266E4DDE03C018F0A7
:100AE00002C017F001C016F000C015F01C2EE7D7A9
:100AF00018C025F017C024F016C023F015C022F04E
:100B000072D703C018F002C017F001C016F000C081
:100B100015F018AE0DD01A061A8A151E161E171ECD
:100B2000181E152AD8B4162AD8B4172AD8B4182AE9
:100B30003B0E216E9A0E206ECA0E1F6E1E6A0A0EA2
:100B40001C6E1950D8B41A2AD882EA6A150EE96EBA
:100B500018C025F017C024F016C023F015C022F0ED
:100B600021C029F020C028F01FC027F01EC026F0A9
:100B70005ADF015000520FE119281C5C0CE01A509A
:100B80000CE00F0B1C5C01E03BE21ABE39D01ABC32
:100B900004D0200E30D0200E1A161AAA0DD01A9AA0
:100BA0001950D8A41A0600501A6E2D0E226EDDECD4
:100BB00000F01A50006E1A6A19501C5C0BE10050CC
:100BC0001A6E2E0E226EDDEC00F01A50006E200E12
:100BD0001A16000E300E1AAA0ED01A9A1950D8A45E
:100BE0001A0600501A6E2D0E226EDDEC00F01A501F
:100BF000006E1A6A300E002600C022F0DDEC00F014
:100C0000D89221C025F020C024F01FC023F01EC0C0
:100C100022F0296A286A276A0A0E266E04DF03C0BA
:100C200021F002C020F001C01FF000C01EF01C2EF9
:100C30008BD763EF07F0F86AD09E600ED36E400E3C
:100C40009B6ED35093908A80C150C00B0F09C16E28
:100C5000070EB46E046A056A600ED36E400E9B6E7A
:100C6000D3500A6A0B6A0C6A040EF66E000EF76E19
:100C7000FEEC00F0140EF66E000EF76EFEEC00F0C7
:100C80002E0EF66E000EF76EFEEC00F0EA6A120E03
:100C9000E96EE9060EEC01F001C0ECFF0D0EEF5C11
:100CA000F9E1EC6A166A120E156E57EC01F001C0FC
:100CB0000AF00AC015F01B0E166E38EC02F00D0E8D
:100CC000226EDDEC00F04C0EF66E000EF76EFEECC0
:100CD00000F0EA6A120EE96EE9060EEC01F001C0BE
:100CE000ECFF0D0EEF5CF9E1EC6A166A120E156E60
:100CF00057EC01F001C00BF00BC015F01B0E166E87
:100D000038EC02F00D0E226EDDEC00F06A0EF66E8D
:100D1000000EF76EFEEC00F00EEC01F0300E015C00
:100D20000C6E0C2C2ED01A6A0AC019F06BEC02F073
:100D300003C018F002C017F001C016F000C015F093
:100D40001A6A0BC019F06BEC02F0D89218C01CF0B4
:100D500017C01BF016C01AF015C019F003C020F020
:100D600002C01FF001C01EF000C01DF086EC02F0B2
:100D700003C010F002C00FF001C00EF000C00DF073
:100D80008ED00C5002082EE11A6A0AC019F06BECE2
:100D900002F003C018F002C017F001C016F000C046
:100DA00015F01A6A0BC019F06BEC02F0D88218C06B
:100DB0001CF017C01BF016C01AF015C019F003C0C4
:100DC00020F002C01FF001C01EF000C01DF086EC34
:100DD00002F003C010F002C00FF001C00EF000C01E
:100DE0000DF05DD00C5003082CE11A6A0AC019F00E
:100DF0006BEC02F003C018F002C017F001C016F04F
:100E000000C015F01A6A0BC019F06BEC02F018C0A4
:100E100025F017C024F016C023F015C022F003C03F
:100E200029F002C028F001C027F000C026F0A3DCA2
:100E300003C010F002C00FF001C00EF000C00DF0B2
:100E40002ED00C5004082BE11A6A0AC019F06BEC82
:100E500002F003C018F002C017F001C016F000C085
:100E600015F01A6A0BC019F06BEC02F018C01CF0F8
:100E700017C01BF016C01AF015C019F003C020F0FF
:100E800002C01FF001C01EF000C01DF0EDD403C071
:100E900010F002C00FF001C00EF000C00DF0B60E51
:100EA000F66E000EF76E210E156E8CD5890EE96E6A
:100EB00010C018F00FC017F00EC016F00DC015F0DE
:100EC000020E196EF7D50D0E226EDDEC00F00D0E40
:100ED000226EDDEC00F0DC0EF66E000EF76EFEEC1E
:100EE00000F00EEC01F001C011F01150500824E1A7
:100EF000320EF66E010EF76EFEEC00F0EA6A120E8C
:100F0000E96EE9060EEC01F001C0ECFF0D0EEF5C9E
:100F1000F9E1EC6A166A120E156E57EC01F001C089
:100F20000AF00AC015F01B0E166E38EC02F00D0E1A
:100F3000226EDDEC00F035D01150530824E1500E44
:100F4000F66E010EF76EFEEC00F0EA6A120EE96E24
:100F5000E9060EEC01F001C0ECFF0D0EEF5CF9E1CB
:100F6000EC6A166A120E156E57EC01F001C00BF018
:100F70000BC015F01B0E166E38EC02F00D0E226E33
:100F8000DDEC00F00ED011504F080BE16E0EF66E46
:100F9000010EF76EFEEC00F00EEC01F0300E015C7D
:060FA0000C6EBFD6030039
:020000040030CA
:0E0000000008181E000581000FC00FE00F4021
:00000001FF
;PIC18F4620
;CRC=861D  CREATED="23-abr.-17 18:33"
