:100000006CEF00F00C500E02F3CF01F0F4CF00F0D3
:100010000F02F35000260D500E02F3500020026E26
:10002000D4EF00F0EA6A090EE96EEF500DE00A0E17
:10003000016E006A002EFED7012EFBD75F0E006E08
:10004000002EFED7EF2EF3D71200926A3F0E896E74
:10005000936A0F0E8A6E96909692969496968D6EEF
:10006000020E086EFA0E096EDDDF082EFBD7926ACB
:10007000896A936A8A6A9690969296949696080EE2
:100080008D6E020E086EFA0E096ECCDF082EFBD7BD
:10009000E0EF00F0016A026A006A036A0F5002E1B1
:1000A0000E5018E0100E106ED8900C360D3600363B
:1000B00003360F50035C02E10E50005C07E30E5064
:1000C000005ED8A003060F50035ED88001360236CA
:1000D000102EEAD7F6EF00F0F86AD09E700ED36EBD
:1000E000400E9B6ED350C150C00B0F09C16E070E5E
:1000F000B46E000E926EF00E936EC150C00B0F09DD
:10010000C16E700ED36E400E9B6ED350066A056AA8
:10011000076A938881A803D0010E076E11D0938AD5
:1001200081AA03D0020E076E0BD0938C81AC03D052
:10013000030E076E05D0938E81AE02D0040E076EBB
:10014000072C0DD094688250096A086E9568835018
:10015000036A0824056E03500920066E4BD0075031
:1001600002080DE194688250096A086E9568835010
:10017000036A085C056E03500958066E3BD00750B1
:10018000030817E194688250096A086E95688350E5
:10019000036A0A6E03C00BF009C00DF008C00CF032
:1001A00003C00FF00E6E2ED702C006F001C005F09E
:1001B00021D0075004081EE19568835205E145D718
:1001C000020E096E2FDF16D094688250096A086EFD
:1001D00095688350036A0A6E03C00BF009C00DF0E6
:1001E00008C00CF003C00FF00E6E54D702C006F02A
:1001F00001C005F0926A05C089FF0630096E05301E
:10020000086E0932083209320832093208320932DE
:10021000083209320832030E0916936A08C08AFFB1
:10022000096A0630086E08323F0E081696909692BC
:0C0230009694969608C08DFF6CD70300D2
:020000040030CA
:0E0000000008181E000581000FC00FE00F4021
:00000001FF
;PIC18F4620
;CRC=94D1  CREATED="27-mar-17 20:32"
