:1000000072EF00F00C500E02F3CF01F0F4CF00F0CD
:100010000F02F35000260D500E02F3500020026E26
:10002000CDEF00F0EA6A0E0EE96EEF500DE00A0E19
:10003000016E006A002EFED7012EFBD75F0E006E08
:10004000002EFED7EF2EF3D712000C6A0C500408D6
:1000500025E3926A3F0E896E936A0F0E8A6E969020
:100060009692969496968D6E020E0D6EFA0E0E6E08
:10007000D9DF0D2EFBD7926A896A936A8A6A9690B5
:10008000969296949696080E8D6E020E0D6EFA0E4E
:100090000E6EC8DF0D2EFBD70C2AD8D7E7EF00F085
:1000A000016A026A006A036A0F5002E10E5018E00A
:1000B000100E106ED8900C360D36003603360F50E9
:1000C000035C02E10E50005C07E30E50005ED8A016
:1000D00003060F50035ED88001360236102EEAD791
:1000E000E3EF00F0F86AD09E700ED36E400E9B6E68
:1000F000D350C150C00B0F09C16E070EB46EC15072
:10010000C00B0F09C16E700ED36E400E9B6ED350A4
:10011000066A056A086A076A0A6A096A0B6A9468C5
:10012000066A82CF05F09568086A83CF07F0938846
:1001300081A803D0010E0B6E11D0938A81AA03D03F
:10014000020E0B6E0BD0938C81AC03D0030E0B6EA2
:1001500005D0938E81AE02D0040E0B6E0B2C07D00F
:1001600007500524096E085006200A6E30D00B5047
:10017000020807E10750055C096E085006580A6E30
:1001800026D00B5003080EE106C00DF005C00CF0A0
:1001900008C00FF007C00EF035D702C00AF001C04A
:1001A00009F015D00B50040812E19568835202E162
:1001B0004CD70DD006C00DF005C00CF008C00FF0F4
:1001C00007C00EF06DD702C00AF001C009F0926AB4
:1001D00009C089FF0A300D6E09300C6E0D320C32E9
:1001E0000D320C320D320C320D320C320D320C321B
:1001F000030E0D16936A0CC08AFF0D6A0A300C6E4E
:100200000C323F0E0C1696909692969496960CC0D1
:060210008DFF85D70300FD
:020000040030CA
:0E0000000008181E000581000FC00FE00F4021
:00000001FF
;PIC18F4620
;CRC=0BED  CREATED="27-mar-17 18:34"
