:1000000049EF00F00D500F02F3CF01F0F4CF00F0F4
:100010001002F35000260E500F02F3500020026E23
:10002000ACEF00F0EA6A0C0EE96EEF500EE0050E40
:10003000016E006A002EFED7012EFBD72E0E006E39
:10004000002EFED700D0EF2EF2D7C9EF00F0016AE4
:10005000026A006A036A105002E10F5018E0100EA5
:10006000116ED8900D360E36003603361050035CF4
:1000700002E10F50005C07E30F50005ED8A00306BA
:100080001050035ED88001360236112EEAD7E2EF17
:1000900000F0F86AD09E600ED36E400E9B6ED35077
:1000A000C150C00B0F09C16E070EB46E600ED36E47
:1000B000400E9B6ED350000E926EF00E936EFF0EAC
:1000C000946E956EC150C00B0F09C16E010E056E86
:1000D000076A066A086A81A803D0010E086E0ED06E
:1000E00081AA03D0020E086E09D081AC03D0030EA2
:1000F000086E04D081AE02D0040E086E082C0BD01E
:1001000082500A6A096E8350036A0924066E0350FE
:100110000A20076E5BD0085002080BE182500A6A81
:10012000096E8350036A095C066E03500A58076E15
:100130004DD00850030815E182500A6A096E8350B9
:10014000036A0B6E03C00CF00AC00EF009C00DF07C
:1001500003C010F00F6E56D702C007F001C006F0C2
:1001600035D00850040832E183521CE10A6A096A5A
:100170000550090804E31F0E0A6E096802D00A6AD6
:10018000096A0550140801E1056A052A320E0C6E51
:1001900049D709C001F00AC002F002C007F001C04F
:1001A00006F014D082500A6A096E8350036A0B6EFF
:1001B00003C00CF00AC00EF009C00DF003C010F02F
:1001C0000F6E45D702C007F001C006F006C089FFD8
:1001D00007300A6E0630096E0A3209320A320932D5
:1001E0000A3209320A3209320A320932030E0A1679
:1001F00009C08AFF0A6A0730096E09323F0E0916E4
:10020000969096929694969609C08DFF64D70300B7
:020000040030CA
:0E0000000008181E000581000FC00FE00F4021
:00000001FF
;PIC18F4620
;CRC=AD71  CREATED="29-mar.-17 19:06"
