:1000000061EF00F00C500E02F3CF01F0F4CF00F0DE
:100010000F02F35000260D500E02F3500020026E26
:10002000C2EF00F0EA6A080EE96EEF500EE0050E2E
:10003000016E006A002EFED7012EFBD72E0E006E39
:10004000002EFED700D0EF2EF2D712003F0E896EA1
:100050000F0E8A6E96909692969496968D6E640E7A
:10006000086EE0DF896A8A6A9690969296949696D0
:10007000080E8D6E640E086ED5DFCDEF00F0016ABC
:10008000026A006A036A0F5002E10E5018E0100E77
:10009000106ED8900C360D36003603360F50035CC8
:1000A00002E10E50005C07E30E50005ED8A003068C
:1000B0000F50035ED88001360236102EEAD7E1EFEA
:1000C00000F0F86AD09E600ED36E400E9B6ED35047
:1000D000C150C00B0F09C16E070EB46E600ED36E17
:1000E000400E9B6ED350000E926EF00E936EFF0E7C
:1000F000946E956EC150C00B0F09C16E066A056AF9
:10010000076A81A803D0010E076E0ED081AA03D022
:10011000020E076E09D081AC03D0030E076E04D027
:1001200081AE02D0040E076E072C0BD08250096AF4
:10013000086E8350036A0824056E03500920066E7A
:1001400044D0075002080BE18250096A086E8350C0
:10015000036A085C056E03500958066E36D00750D6
:10016000030815E18250096A086E8350036A0A6E1B
:1001700003C00BF009C00DF008C00CF003C00FF075
:100180000E6E40D702C006F001C005F01ED0075029
:1001900004081BE1835205E159D7020E086E42DFC5
:1001A00014D08250096A086E8350036A0A6E03C035
:1001B0000BF009C00DF008C00CF003C00FF00E6E7C
:1001C0005ED702C006F001C005F005C089FF063009
:1001D000096E0530086E09320832093208320932D8
:1001E00008320932083209320832030E091608C0F3
:1001F0008AFF096A0630086E08323F0E081696908C
:0E02000096929694969608C08DFF7BD70300C9
:020000040030CA
:0E0000000008181E000581000FC00FE00F4021
:00000001FF
;PIC18F4620
;CRC=2188  CREATED="28-mar.-17 23:09"
