:1000000049EF00F00D500F02F3CF01F0F4CF00F0F4
:100010001002F35000260E500F02F3500020026E23
:10002000B3EF00F0EA6A0C0EE96EEF500EE0050E39
:10003000016E006A002EFED7012EFBD72E0E006E39
:10004000002EFED700D0EF2EF2D7D1EF00F0016ADC
:10005000026A006A036A105002E10F5018E0100EA5
:10006000116ED8900D360E36003603361050035CF4
:1000700002E10F50005C07E30F50005ED8A00306BA
:100080001050035ED88001360236112EEAD7ECEF0D
:1000900000F0F86AD09E600ED36E400E9B6ED35077
:1000A000C150C00B0F09C16E070EB46E600ED36E47
:1000B000400E9B6ED350000E926EF00E936EC150A8
:1000C000C00B0F09C16E010E056E076A066A086A49
:1000D000938881A803D0010E086E11D0938A81AA5B
:1000E00003D0020E086E0BD0938C81AC03D0030EAC
:1000F000086E05D0938E81AE02D0040E086E082CD7
:100100000DD0946882500A6A096E95688350036A1C
:100110000924066E03500A20076E62D008500208B8
:100120000DE1946882500A6A096E95688350036AEB
:10013000095C066E03500A58076E52D00850030837
:1001400017E1946882500A6A096E95688350036AC1
:100150000B6E03C00CF00AC00EF009C00DF003C016
:1001600010F00F6E4FD702C007F001C006F038D074
:100170000850040835E1956883521CE10A6A096A4F
:100180000550090804E31F0E0A6E096802D00A6AC6
:10019000096A0550140801E1056A052A320E0C6E41
:1001A00041D709C001F00AC002F002C007F001C047
:1001B00006F016D0946882500A6A096E95688350DA
:1001C000036A0B6E03C00CF00AC00EF009C00DF0FC
:1001D00003C010F00F6E3BD702C007F001C006F05D
:1001E000926A06C089FF07300A6E0630096E0A322D
:1001F00009320A3209320A3209320A3209320A3223
:100200000932030E0A16936A09C08AFF0A6A073088
:10021000096E09323F0E091696909692969496961C
:0802200009C08DFF55D7030052
:020000040030CA
:0E0000000008181E000581000FC00FE00F4021
:00000001FF
;PIC18F4620
;CRC=DFF7  CREATED="29-mar.-17 16:44"
