:100000004FEF00F0EA6A0B0EE96EEF500DE00A0EBA
:10001000016E006A002EFED7012EFBD75F0E006E28
:10002000002EFED7EF2EF3D71200926A3F0E896E94
:10003000936A0F0E8A6E96909692969496968D6E0F
:10004000020E0A6EFA0E0B6EDDDF0A2EFBD7926AE5
:10005000896A936A8A6A9690969296949696080E02
:100060008D6E020E0A6EFA0E0B6ECCDF0A2EFBD7D7
:10007000B3EF00F00B50016A0A5C03E20AC000F023
:100080000CD0006A080E0C6E0A3600360B50005C6D
:10009000D8B0006E01360C2EF7D7B0EF00F0F86A3A
:1000A000D09E700ED36E400E9B6ED350C150C00BCD
:1000B0000F09C16E070EB46E000E926EF00E936EB5
:1000C000C150C00B0F09C16E700ED36E400E9B6EF7
:1000D000D350066A056A076A086A096A946882CF7B
:1000E00007F0956883CF08F0938881A803D0010EAC
:1000F000096E11D0938A81AA03D0020E096E0BD02B
:10010000938C81AC03D0030E096E05D0938E81AE23
:1001100002D0040E096E092C05D008500724056E84
:10012000066A21D00950020805E10850075C056EF7
:10013000066A19D00950030806E107500802F35077
:10014000066A056E10D0095004080DE195688352C7
:1001500002E16BD708D007C00AF008C00BF08AD7BD
:10016000066A01C005F0926A05C089FF06300B6E71
:1001700005300A6E0B320A320B320A320B320A3267
:100180000B320A320B320A32030E0B16936A0AC084
:100190008AFF0B6A06300A6E0A323F0E0A169690E4
:0E01A0009692969496960AC08DFF98D703000B
:020000040030CA
:0E0000000008181E000581000FC00FE00F4021
:00000001FF
;PIC18F4620
;CRC=BFEF  CREATED="27-mar-17 18:58"
