:0400000063EF00F0BA
:08000800046ED8CF05F0E0CF33
:1000100006F00001E9CF0CF0EACF07F0E1CF08F0DD
:10002000E2CF09F0D9CF0AF0DACF0BF0F3CF12F01C
:10003000F4CF13F0FACF14F000C00EF001C00FF0AF
:1000400002C010F003C011F0F2AA2AEF00F0F2B4DF
:100050004BEF00F00EC000F00FC001F010C002F036
:1000600011C003F00CC0E9FF07C0EAFF078E08C00B
:10007000E1FF09C0E2FF0AC0D9FF0BC0DAFF12C0DE
:10008000F3FF13C0F4FF14C0FAFF045006C0E0FFF2
:1000900005C0D8FF1000162AF2942AEF00F01D5078
:1000A000016A1C5C03E21CC000F00CD0006A080E60
:1000B0001E6E1C3600361D50005CD8B0006E013636
:1000C0001E2EF7D71200F86AD09E078E166AC1500E
:1000D000C00B0F09C16E070EB46E176A186A196A51
:1000E0001A6A1B6A870ED56EF28AC00EF212000BD6
:1000F00008E0926A18C089FFD8901832185201E1BE
:10010000186A17C01CF0050E1D6EC9DF005008E00C
:10011000936A19C08AFFD8901932195201E1196AFD
:1001200017C01CF00A0E1D6EBADF005008E0946A7A
:100130001AC08BFFD8901A321A5201E11A6A17C0FE
:100140001CF00F0E1D6EABDF005009E0956A1BC05E
:100150008CFFD8901B321B5201E11B6A176AC7D76C
:0201600003009A
:020000040030CA
:0E0000000008181E000581000FC00FE00F4021
:00000001FF
;PIC18F4620
;CRC=4776  CREATED="02-abr.-17 20:27"
