:0400000052EF00F0CB
:08000800046ED8CF05F0E0CF33
:1000100006F00001E9CF0CF0EACF07F0E1CF08F0DD
:10002000E2CF09F0D9CF0AF0DACF0BF0F3CF12F01C
:10003000F4CF13F0FACF14F000C00EF001C00FF0AF
:1000400002C010F003C011F0F2AA2AEF00F0F2B4DF
:100050004BEF00F00EC000F00FC001F010C002F036
:1000600011C003F00CC0E9FF07C0EAFF078E08C00B
:10007000E1FF09C0E2FF0AC0D9FF0BC0DAFF12C0DE
:10008000F3FF13C0F4FF14C0FAFF045006C0E0FFF2
:1000900005C0D8FF1000162A172A182A192AF29428
:1000A0002AEF00F0F86AD09E078E166A176A186A5F
:1000B000196AC150C00B0F09C16E070EB46E800ED5
:1000C0001A6E1B6E1C6E1D6E870ED56EF28AC00EE8
:1000D000F212000E926E936E946E956E1650050895
:1000E00007E2D8901A32166A1A5202E1800E1A6E8E
:1000F00017501D0807E2D8901B32176A1B5202E105
:10010000800E1B6E18503C0806E2D8901C32186A0C
:100110001C5201E11C6A19505A0807E2D8901D329E
:10012000196A1D5202E1800E1D6E1AC089FF1BC0A4
:0E0130008AFF1CC08BFF1DC08CFFD0D70300C0
:020000040030CA
:0E0000000001181E000581000FC00FE00F4028
:00000001FF
;PIC18F4620
;CRC=857D  CREATED="03-abr.-17 20:38"
